:020000040800F2
:10000000080B002005010008CF340008DF2E00088F
:10001000CD340008030B000819410008000000005F
:1000200000000000000000000000000017010008B0
:10003000450C0008000000001B010008393C0008C6
:100040001F0100081F0100081F0100081F01000810
:100050001F0100081F0100081F0100081F01000800
:100060001F0100081F0100081F0100081F010008F0
:100070001F0100081F0100081F0100081F010008E0
:100080001F0100081F0100081F0100081F010008D0
:100090001F0100081F0100081F0100081F010008C0
:1000A0001F0100081F0100081F0100081F010008B0
:1000B0001F010008F93C00081F0100081F0100088B
:1000C0001F0100081F0100081F0100081F01000890
:1000D0001F01000855400008614000086D400008FD
:1000E0001F010008253700081F010008DFF810D0A5
:1000F00000F06AFC004800473D4F0008AFF3008065
:10010000080B00200648804706480047FEE7FEE748
:10011000FEE7FEE7FEE7FEE7FEE7FEE7FEE7FEE7B7
:10012000B13C0008ED000008202A04DB203A21FA47
:1001300002F00021704721FA02F3D040C2F1200200
:10014000914008431946704740EA01039B0703D0DA
:1001500009E008C9121F08C0042AFAD203E011F806
:10016000013B00F8013B521EF9D27047D2B201E0C8
:1001700000F8012B491EFBD270470022F6E710B5AC
:1001800013460A4604461946FFF7F0FF204610BD05
:10019000421E12F8013F002BFBD111F8013B02F87F
:1001A000013B002BF9D17047F0B480EA0102D40F73
:1001B0004200B2EB410F02D20246084611464A0005
:1001C00042D0C30DDDB2C1F3C752AD1A202D35DACE
:1001D000C1F3160141F4000204B15242C5F12006F8
:1001E00002FA06F12A411044B3EBD05F23D0C4B128
:1001F000012DA0EBC35009DCF0BC4FF0004202EA35
:10020000C352DBB200F5000000F052BB400000F129
:10021000807000EBC350A0F1807040EAD1704900BB
:1002200009E0490841EAC071A0EBC35000F50000A5
:10023000400800EBC350F0BC00F031BB614201222A
:1002400002EB4101001BF6E7F0BC704781F0004172
:10025000AAE780F00040A7E780EA010210B502F0AB
:100260000043400022D04A001FD0010E01EB126172
:10027000C0F35600C2F3560240F4000042F40002FC
:10028000A0FB022000047F39140400D0401C50EA77
:10029000124001D44000491EC2B20C0604EBD0103B
:1002A000401C4008802A02D003E0002010BD20F04E
:1002B0000100002900DA0020184310BD30B480EAA4
:1002C000010202F0004530F0004221F0004013D05E
:1002D00090B1C30DD40DC2F31601C0F31600E41A99
:1002E00041F4000140F400027D34914201D3641CCA
:1002F00000E04900002C02DA30BC002070474FF4C7
:1003000000000023914201D3891A034340084FEAB9
:100310004101F7D151B1914202D14FF0004105E0C6
:1003200002D24FF0010101E06FF0010103EBC45074
:10033000284430BC00F0B3BA2DE9FE4F804681EA74
:100340000300C00F0C46009021F0004123F000454F
:10035000B8EB0200A94105D24046214690461C4612
:100360000B46024623F00040104347D0270DC7F349
:100370000A00C3F30A510290401A019040286BDA38
:10038000C3F3130040F4801B0098924620B1002371
:10039000D2EB030A63EB0B0B01985946C0F1400204
:1003A000504600F05BFA06460D4650465946019A03
:1003B00000F063FA10EB08006141002487EA115253
:1003C00084EAE7731A4340D0009A62B3019A012A83
:1003D0004FEA075215DC001B61EB02014FF00042AF
:1003E00002EA0752CDE90042001C41F58011324675
:1003F0002B4600F09AFA03B0BDE8F08F4046214644
:10040000F9E7001B61EB0201001C41F580130018A5
:100410005B412018A2F5001747EB030140EAD570B5
:10042000B6196D4111E06D084FEA360645EAC07510
:100430004FEA0752001B61EB0201001C41F58011DD
:1004400049084FEA30000019514132462B4603B0AB
:10045000BDE8F04F00F05ABA009801224000002396
:10046000D0EB020263EBE073009821464FEAE074A0
:10047000B8EB000061EB0401E9E783F000435BE7C0
:1004800081F0004158E72DE9FE4F81EA030404F0B2
:10049000004421F0004100944FF0000B23F0004392
:1004A00050EA01045ED052EA03045BD0C3F30A545D
:1004B000C1F30A552C44A4F2F3340194A0FB025476
:1004C000C1F3130141F48011C3F3130343F4801308
:1004D00001FB024400FB034E840A970A44EA81545C
:1004E00047EA8357A4FB076802958D0A05FB078539
:1004F0004FEA932C04FB0C542705029D4FEA065843
:1005000047EA1637B5EB08056EEB070C870E920E1F
:1005100047EA811742EA8312A7FB0201B6EB0B01FF
:1005200064EB00042B0D43EA0C335E1844EB1C50C3
:10053000DA465146E7FB0201C5F313044FEA0B33D9
:1005400043EA14534FEA0432019C43EA0603A4F140
:100550000C040294009CCDE900B400F0E6F903B06D
:10056000BDE8F08F00200146F9E72DE9F04D81EA62
:10057000030404F0004B21F0004514464FF0000A3C
:1005800023F0004150EA050220D054EA01021DD0B8
:10059000C5F30A570246C5F31303C1F31300C1F3B1
:1005A0000A5640F4801543F48013A7EB0608101B8D
:1005B000D64608F2FD3873EB050002D308F10108B6
:1005C00001E092185B41B8F1000F03DA0020014608
:1005D000BDE8F08D00204FF48011064684460EE001
:1005E000171B73EB050705D3121B63EB05030643CB
:1005F0004CEA010C49084FEA300092185B4150EA7E
:100600000107EDD152EA030012D082EA040083EA26
:100610000501084305D0101BAB4106D2012200237F
:1006200006E000224FF0004302E06FF00102531099
:100630001AEB06004CEB085110EB0A0041EB0B01E2
:10064000BDE8F04D00F062B970B521F000430343FE
:100650000CD0C1F30A550024D5EB040564EB040368
:10066000D617AD1AB34102DB0020014670BD201839
:1006700041EB025170BDC10F80EAE0700844CA0727
:100680009623002100F014B996230022114600F0B1
:100690000FB90EB5C10F80EAE0700844CA07002107
:1006A00040F233438DE80E000A460B4600F03DF958
:1006B00003B000BD0EB540F2334102910021CDE9F7
:1006C00000110A460B4600F030F903B000BD00F0FF
:1006D000004220F00040C10DC0F3160040F40000BD
:1006E0007F2901DA00207047962903DCC1F19601C9
:1006F000C84001E096398840002AF4D04042704753
:1007000020F00040C10DC0F3160040F400007F2926
:1007100001DA00207047962903DCC1F19601C84038
:10072000704796398840704770B5C1F30A5201F09E
:1007300000450024C1F3130140F2FF3341F480115E
:100740009A4201DA002070BD40F233439A42A2F28D
:10075000334203DC5242FFF7E7FC00E090402C43B9
:10076000F1D0404270BDC1F30A5210B5C1F313017C
:1007700040F2FF3341F480119A4201DA002010BDAB
:1007800040F233439A42A2F2334203DC5242FFF773
:10079000CBFC10BD904010BD30B5041E71F10004BB
:1007A00004DB4FF00044404264EB0101141E73F17E
:1007B000000405DB1C464FF00043524263EB040388
:1007C0008B4208BF824230BD30B5041E71F1000477
:1007D00004DB4FF00044404264EB0101141E73F14E
:1007E000000405DB1C464FF00043524263EB040358
:1007F000994208BF904230BD01F0004330B421F06F
:10080000004150EA010206D00A0DA2F56072C1F360
:100810001301002A02DC30BC00207047440F44EA78
:10082000C104C100E01830BC00EBC25000F037B882
:1008300030B50B46014600202022012409E021FAB0
:1008400002F59D4205D303FA02F5491B04FA02F5AD
:100850002844151EA2F10102F1DC30BD202A04DB80
:10086000203A00FA02F1002070479140C2F12003C3
:1008700020FA03F3194390407047202A06DBCB1778
:10088000203A41FA02F043EAE07306E041FA02F34B
:10089000D040C2F120029140084319467047002918
:1008A000A8BF7047401C490008BF20F001007047F6
:1008B00010B4B0FA80FC00FA0CF050EA010404BF56
:1008C00010BC704749B1CCF1200421FA04F411FAAC
:1008D0000CF118BF012121430843A3EB0C01CB1DF0
:1008E0004FEA00614FEA102042BF002010BC704761
:1008F00000EBC35010440029A4BF10BC7047401C3B
:10090000490008BF20F0010010BC704710B5141E4C
:1009100073F1000408DA401C41F1000192185B41B8
:100920001A4301D120F0010010BD2DE9F04D92468F
:100930009B4611B1B1FA81F202E0B0FA80F22032A6
:100940009046FFF78BFF04460F4640EA0A0041EA53
:100950000B0153465A46084313D0114653EA01008F
:1009600019D0C8F140025046FFF7DEFB05460E469F
:10097000504659464246FFF771FF084305D0012013
:1009800004E020463946BDE8F08D0020054346EAE4
:10099000E0762C4337430A986305E40AA0EB08008D
:1009A0000022FD0A44EA47540A3002D500200146DD
:1009B000E9E7010510196941DDE9084500196941B8
:1009C000BDE8F04DA2E70000064C074D06E0E068E8
:1009D00040F0010394E8070098471034AC42F6D386
:1009E000FFF788FB24600008446000082DE9F04D03
:1009F00000231A461B1A8A4103DB00200146BDE88A
:100A0000F08DC1F30A52C1F3130141F480154FF088
:100A1000000BD10702D100186D41521E0027044679
:100A200040F2FF11384601EB620A3E46804602461C
:100A300000204FF48011FFF777FBC2197141BB18FA
:100A400046EB0100B4EB030C75EB000C04D3E41A85
:100A500065EB000517460E46241908F101006D41AB
:100A600080463428E3DDF91946EB0600091BA8414E
:100A700003D24FF0FF32134601E0002213461BEB76
:100A8000070046EB0A51BDE8F04DFFF73FBF0A46AD
:100A90000146072003F070BD10B50446012084F81C
:100AA0003A00052184F83810022184F83910042115
:100AB00084F83B1084F83C001F20214603F053FECD
:100AC0002146BDE81040032003F020BE762141708E
:100AD0000121817003494160034981600349C1607C
:100AE00003F085BD9D400008F140000887400008E4
:100AF00000F00F01000900EB800001EB4000C0B2E4
:100B00007047FEE7F0B5044600789BB01546002814
:100B10001BD1012900D0B1B90D4E0091A6F11407E7
:100B200073690CA101A83A6803F03EFB0095B36914
:100B300008A10EA83A6803F037FB01A802F086FB73
:100B40000EA802F083FB012020701BB0F0BD000056
:100B50004800002025732E25732E76616C3D256498
:100B600000000000F0B500789DB01C4615460E460A
:100B7000002848D13078002845D101222946234851
:100B800001F095FA01222146204801F069FA6078C7
:100B9000FFF7AEFF1E4901EB800050F8042CA0784F
:100BA000FFF7A6FF03462078FFF7A2FF1849184C6D
:100BB00030311C3C51F82010CDE900130292A4F111
:100BC0001407236913A103A83A6803F0EDFAA87883
:100BD000FFF78EFF02466878FFF78AFF0346287802
:100BE000FFF786FFCDE900030292E3680FA110A88A
:100BF0003A6803F0D9FA03A802F028FB10A802F023
:100C000025FB012030701DB0F0BD00005001002018
:100C10006400002025732E25732E7478743D2225E0
:100C2000732C2025642025732200000025732E25B7
:100C3000732E7478743D2225643A25643A25642223
:100C400000000000FEE70A21B0FBF1F201FB1202F6
:100C5000B0FBF1F002EB0010C0B2704770B5094D67
:100C60004FF4807400222146284600F039F93220E2
:100C700000F04CF821462846BDE87040012200F003
:100C80002FB9000000080140F0B50A29059E15D2D1
:100C90000C4D01246F5C07B96C540A4DDFF828C075
:100CA000283D5CF8233055F8217073439F4205D3EB
:100CB0000023012A03D0037045F82130F0BD0470F1
:100CC000FAE7000000010020B000002070B50646E1
:100CD000007814460B46002817D1012221461846F9
:100CE00002F006FCA088FFF7CFFC0A2103F0E4FF26
:100CF00005466088FFF7C8FC192103F0DDFF29468F
:100D000003F0C3F920800120307070BD31B500F0D0
:100D1000EDF8044600F0EAF80099001B8842F9D388
:100D200038BD00002DE9F84FDFF890A100220AF14C
:100D3000040B144601274FF00F090BF1040E00BFFE
:100D40000B6807FA04F52B40AB4274D1DFF870C191
:100D50004E68A6EB0C0866452BD00DDC032E34D074
:100D600005DC36B3012E19D0022E2FD11BE0112E37
:100D700016D0122E2AD119E0B8F5881F19D006DC3A
:100D8000B8F5803F15D0B8F5801F1FD111E0B8F538
:100D9000001F0ED0B8F5041F18D10AE0CA6815E08C
:100DA000CA68121D12E0CA6808320FE0CA680C3225
:100DB0000CE08A682AB1012A4FF0080203D045618D
:100DC00004E0042202E0056100E00022FF2B01D8CC
:100DD000064601E000F104064FEA840501D9A5F1B9
:100DE0002005D6F800C009FA05F82CEA080C02FA2A
:100DF00005F54CEA050CC6F800C04D68ED0057D566
:100E0000304DAE6946F00106AE61AD6924F00306CF
:100E100005F0010500952C4D06EB050CDCF808509B
:100E2000A6074FEA167809FA08F6B543274EB042EE
:100E300002D1002610E03BE0254EB04201D1012650
:100E40000AE0244EB04201D1022605E0224EB04213
:100E500001D1032600E0042606FA08F62E43CCF85A
:100E600008604D68DAF80060ED03554601D51E4371
:100E700000E09E432E604D68DBF80060AD035D46E8
:100E800001D51E4300E09E432E604D68DEF80060F1
:100E9000ED02754601D51E4300E09E432E604D686D
:100EA000AD020E4D2E6801D51E4300E09E432E601C
:100EB000641C102CFFF444AFBDE8F88F000401401F
:100EC0000000111000100240000001400008014025
:100ED000000C014000100140001401400C040140CE
:100EE0000AB1016170470904FBE70000014800688E
:100EF00070470000C400002070B5040004D094F8CE
:100F00003500002510B106E0012070BD84F8345092
:100F1000204600F0C9F9242084F8350020680168D3
:100F200021F00101016000F0F7FC01462848226829
:100F3000B1FBF0F05060274A6368934206D94FF442
:100F4000967358434FF47A73B0FBF3F02368401C58
:100F500018626068904208D84000B1FBF0F0C0F31E
:100F60000B01042916D2042014E0A26852B100EB50
:100F7000C00202EB0010B1FBF0F040F4404001056C
:100F800007D007E000EB4000B1FBF0F040F4004078
:100F9000F5E701202168C861D4E907010843216809
:100FA0000860D4E90310084321688860D4E905018A
:100FB00008432168C8602068016841F001010160B0
:100FC000A563202084F8350084F83650002070BDD9
:100FD00040420F00A08601002DE9F84F04460AA800
:100FE000984690E8600294F8350092468B46202897
:100FF0007BD1002D61D0002E5FD042F21073012210
:101000006949204602F03EF80028F1D194F83400F6
:1010100001286AD0012084F834002068016821F496
:1010200000610160222084F83500402084F83600F9
:101030000027A7634346524659462046CDF8009004
:1010400001F063FF28B1A06B84F83470042834D019
:1010500072E0012E1AD02068DFF85081022E01685C
:101060002ED041F480610160206841698069009060
:10107000032E74D8012E18D0022E2ED04B460022FB
:101080004146204601F0FEFF80BB42E02068016837
:1010900021F48061016072B6206841698169009124
:1010A000016841F40071016062B64946204602F0D1
:1010B00072F8E0B1A06B20283ED00120BDE8F88F87
:1010C00041F40061016072B6206841698169009154
:1010D000016821F48061016062B64B4600224146FE
:1010E000204601F0CFFF08B905E05AE024E020686F
:1010F000006928704CE072B62068016841F4007104
:10110000016020680069287062B620680069687014
:101110003EE02068016821F48061016072B62068B9
:10112000006905F8010B761EB6B24B460022414617
:10113000204601F0A7FF08B10320BFE7206801683F
:1011400041F4007101602068006905F8010B62B686
:101150002068006905F8010BB61E15E0FFE7494657
:10116000204602F018F80028A4D12068006905F88C
:10117000010B2068761EB6B24169C943490704D401
:10118000006905F8010B761EB6B2002E7FF470AF31
:10119000202084F8350084F8367084F834700020FC
:1011A0008CE702208AE70000020010000400010022
:1011B0002DE9F84F0446DDE90A6590F83500DDF8C1
:1011C0003080994692468B46202868D1002E64D004
:1011D000002D62D042F2107301223249204601F004
:1011E00051FFE8BB94F83400012858D0012084F85E
:1011F00034002068016821F400610160212084F836
:101200003500402084F836000027A7634B4652463D
:1012100059462046CDF8008001F0E8FE28B1A06BC9
:1012200084F83470042838D007E04146204601F0A5
:10123000E5FF28B1A06B04282AD00320BDE8F88F71
:10124000216816F8010B086120686D1EADB2416976
:10125000C943490707D445B116F8011B016100E0F5
:101260001DE06D1EADB2002DDFD14146204601F0DC
:10127000C5FF0028DED154F8350B016841F4007138
:101280000160202004F81E09E77767770020D5E782
:101290002068016841F4007101600120CEE702205E
:1012A000CCE700000200100000B500680C4985B0D2
:1012B000884212D1C0200090122001900320039098
:1012C00069460848FFF72EFD0748C16941F400113F
:1012D000C161C06900F40010049005B000BD0000B9
:1012E00000540040000C0140001002400248016818
:1012F000491C016070470000C4000020074810B579
:10130000016841F010010160032000F07DF8002029
:1013100000F006F800F016F8002010BD0020024092
:1013200010B5044600F0DEFA4FF47A71B0FBF1F02C
:1013300001F0F9F800222146501E00F045F8002087
:1013400010BD0000184808B5816941F001018161B4
:10135000806900F001000090032000F055F80022A1
:1013600011466FF00B0000F02FF8002211466FF0CD
:101370000A0000F029F8002211466FF0090000F081
:1013800023F800221146101F00F01EF8002211461B
:10139000501E00F019F80548416821F0E06141F065
:1013A0000071416008BD00000010024000000140D3
:1013B00000F01F02012191404009800000F1E0206F
:1013C000C0F8001170470000F0B40E4B1B680C46CB
:1013D000C3F30223C3F10705042D00D90425191D09
:1013E000072901D2002300E0DB1E012606FA05F1E1
:1013F000491E214099409E40761E16403143F0BC64
:1014000002F066B80CED00E0064900F0070208683B
:101410004FF6FF03184040EA0220034A10430860D9
:10142000704700000CED00E00000FA050120010209
:1014300091FAA1F1024AB1FA81F142F82100704714
:1014400000000E4210B533A401461DCC86B08DE8D5
:101450001D0034A0344C006804900020012931D0D4
:10146000022948D010292BD161682268D20127D5E2
:101470004FF4701292FAA2F201F47010B2FA82F2F2
:10148000D040C9031DF8000010D561684FF4003248
:1014900092FAA2F201F40031B2FA82F2D14004AA27
:1014A000515C224AB2FBF1F1484301E02049484334
:1014B0006168490204D440005FF00301B0FBF1F021
:1014C00006B010BD226AC2F30121012903D192079F
:1014D00001D5C803F4E7022905D1626A920702D553
:1014E00049F64040ECE70329EAD121688903E7D5B2
:1014F0004FF22440E4E700F025FA61684FF480429F
:1015000092FAA2F201F44041B2FA82F2D140491CAF
:101510004900D3E702030405060708090A0B0C0D6E
:101520000E0F1010010200000010024000127A009D
:1015300000093D002DE9F84305460078444CC007FA
:1015400071D0E06940F08050E061E069414E00F008
:1015500080500090306840F480703060FFF7C6FC27
:10156000074604E0FFF7C2FCC01B642831D830688E
:10157000C005F7D5206AA98800F4407001F44071D5
:10158000884250D0206A0126310491FAA1F2B2FAC1
:1015900082F29300304A20F440701344C3F8006490
:1015A00091FAA1F1B1FA81F102EB81010023C1F8B6
:1015B00000342062800730D5FFF798FCB04607461C
:1015C00041F28839022607E0FFF790FCC11B49452C
:1015D00002D90320BDE8F88396FAA6F0B0FA80F0AD
:1015E00040F04000B8EB501F01D120680BE096FAA4
:1015F000A6F0B0FA80F040F04000B6EB501F01D1E9
:10160000206A00E0606A96FAA6F2B2FA82F202F06C
:101610001F0208FA02F10842D6D0206A696820F455
:101620004070084320622878800705D56068A96863
:1016300020F44040084360602878C00605D5606803
:10164000E96820F48000084360600020C2E70000E1
:101650000010024000700040000042422DE9F047B7
:10166000DFF8789205460E46D9F80000022300F014
:101670000707012041044206994C41F28838B742DD
:1016800071D2D9F800C02CF0070C4CEA060CC9F84E
:1016900000C0D9F8007007F00707B7426FD12E7865
:1016A000B60705D56668AF6826F0F0063E4366606B
:1016B0002E78F60756D06E68012E0BD0022E1ED063
:1016C00093FAA3F1B1FA81F141F02001490924D044
:1016D000216823E091FAA1F2B2FA82F242F02002EC
:1016E000520901D0226800E0626A91FAA1F1B1FAD0
:1016F00081F101F01F018840024240D017E092FAC8
:10170000A2F1B1FA81F141F02001490901D021682B
:1017100000E0616A92FAA2F202E0616A93FAA3F22F
:10172000B2FA82F202F01F029040014227D06068B4
:1017300020F0030030436060FFF7D8FB064668687E
:10174000012809D00228474613D01EE0FFF7CEFB40
:10175000801BB84201D992E047466068C0F381001F
:101760000128F3D1A1E015E0FFF7C0FB801BB842D0
:1017700073D86068C0F381000228F5D195E092E04B
:10178000FFF7B4FB801BB84279D8606810F00C0FEB
:10179000F6D18AE02F78BF0707D56768D5F808C06B
:1017A00027F0F00747EA0C0767602F78FF076DD036
:1017B0006F68012F0BD0022F1ED093FAA3F1B1FA5C
:1017C00081F141F02001490924D0216823E091FAF8
:1017D000A1F2B2FA82F242F02002520901D022684C
:1017E00000E0626A91FAA1F1B1FA81F101F01F0102
:1017F0008840024257D017E092FAA2F1B1FA81F183
:1018000041F02001490901D0216800E0616A92FAA3
:10181000A2F202E0616A93FAA3F2B2FA82F202F053
:101820001F02904001423ED0606820F00300384320
:101830006060FFF75BFB07466868012807D0022855
:1018400011D01FE0FFF752FBC11B414517D860685C
:10185000C0F381000128F5D118E010E0FFF746FB46
:10186000C11B41450BD86068C0F381000228F5D147
:101870000CE000BFFFF73AFBC11B414502D9032032
:10188000BDE8F087606810F00C0FF3D1D9F80010B4
:1018900021F007013143C9F80010D9F8000000F029
:1018A0000700B04201D00120EAE72878400705D5BB
:1018B0006068E96820F4E060084360602878000709
:1018C00006D56068296920F4605040EAC100606074
:1018D0000020FFF725FD0020D2E700000020024095
:1018E0000010024000B500F043F808494968F022B2
:1018F00092FAA2F201F0F001B2FA82F2D140044A67
:10190000515CC8400349086000BD0000001002405F
:10191000D85E0008C000002000B5FFF7E3FF0749CC
:1019200049684FF4E06292FAA2F201F4E061B2FA7F
:1019300082F2D140024A515CC84000BD0010024012
:10194000D85E000800B5FFF7CDFF074949684FF49E
:10195000605292FAA2F201F46051B2FA82F2D140DE
:10196000024A515CC84000BD00100240D85E000829
:1019700010B519A385B00FCB8DE80F001AA01B4B33
:10198000006804905A681A4802F00C0104291DD01E
:1019900008291BD14FF4701494FAA4F402F47011C6
:1019A000B4FA84F4E140D2031DF8011010D55A684E
:1019B0004FF4003393FAA3F302F40032B3FA83F343
:1019C000DA4004AB9A5CB0FBF2F0484305B010BDBE
:1019D00008484843FAE7000002030405060708091F
:1019E0000A0B0C0D0E0F1010010200000010024037
:1019F00000127A0000093D002DE9F84F05460078F5
:101A0000FA4EC0074FF0010425D070686704C0F398
:101A10008100012807D07068C0F3810002281BD123
:101A20007068C00318D597FAA7F0B0FA80F040F0BC
:101A30002000400901D0306800E0706A97FAA7F1F1
:101A4000B1FA81F101F01F0104FA01F1084202D05C
:101A50006868002876D081E0306820F480303060FB
:101A6000306820F480203060FFF740FA804605E0BF
:101A7000FFF73CFAA0EB080064287CD897FAA7F09F
:101A8000B0FA80F040F02000400901D0306800E05A
:101A9000706A97FAA7F1B1FA81F101F01F0104FA17
:101AA00001F10842E4D16868B0F5803F0BD010B175
:101AB000B0F5A02F11D0306820F48030306030684D
:101AC00020F4802002E0306840F4803030606868A4
:101AD00020B3FFF70BFA80460AE0306840F480201C
:101AE0003060F0E7FFF702FAA0EB08006428C4D8E2
:101AF00097FAA7F0B0FA80F040F02000400901D03A
:101B0000306800E0706A97FAA7F1B1FA81F101F04C
:101B10001F0104FA01F10842E4D01FE0FFF7E6F9E3
:101B2000804605E0FFF7E2F9A0EB08006428A4D89E
:101B300097FAA7F0B0FA80F040F02000400902D0F8
:101B4000306801E0B7E0706A97FAA7F1B1FA81F165
:101B500001F01F0104FA01F10842E3D12878DFF80F
:101B6000908280074FF000094FF002075AD5706845
:101B700010F00C0F00E07AE14FF0F80B07D070681E
:101B8000C0F3810002281BD17068C00318D497FAF3
:101B9000A7F0B0FA80F040F02000400901D0306892
:101BA00000E0706A97FAA7F1B1FA81F101F01F0124
:101BB00004FA01F108422AD0286901287BD126E0E5
:101BC000286980B394FAA4F0B0FA80F048F8204075
:101BD000FFF78CF9824605E0FFF788F9A0EB0A00D1
:101BE000022884D897FAA7F0B0FA80F040F02000DD
:101BF000400901D0306800E0706A97FAA7F1B1FAA5
:101C000081F101F01F0104FA01F10842E4D03068CB
:101C10009BFAABF26969B2FA82F220F0F8009140C7
:101C20000843306025E0FFE794FAA4F1B1FA81F1AE
:101C300048F82190FFF75AF9824605E0FFF756F978
:101C4000A0EB0A000228CCD897FAA7F0B0FA80F0EF
:101C500040F02000400901D0306800E0706A97FA37
:101C6000A7F1B1FA81F101F01F0104FA01F1084274
:101C7000E4D1287800076ED5A869B8B394FAA4F027
:101C8000B0FA80F008EB8000C0F88044FFF72EF92E
:101C9000824605E0FFF72AF9A0EB0A000228A0D847
:101CA00097FAA7F0B0FA80F040F06000B4EB501F54
:101CB00002D130680CE096E197FAA7F0B0FA80F014
:101CC00040F06000B7EB501F01D1306A00E0706A4D
:101CD00097FAA7F1B1FA81F101F01F0104FA01F2BC
:101CE0001042D7D00120FFF711F834E0FFE794FA53
:101CF000A4F1B1FA81F108EB8101C1F88094FFF7FA
:101D0000F5F8824606E000BFFFF7F0F8A0EB0A0006
:101D1000022898D897FAA7F0B0FA80F040F0600057
:101D2000B4EB501F01D130680BE097FAA7F0B0FA7E
:101D300080F040F06000B7EB501F01D1306A00E046
:101D4000706A97FAA7F1B1FA81F101F01F0104FA64
:101D500001F21042D8D12878400770D5F06940F0E0
:101D60008050F061F069DFF88CB000F08050009096
:101D7000DBF8001041F48071CBF80010FFF7B6F8E3
:101D8000824605E0FFF7B2F8A0EB0A0064286ED89F
:101D9000DBF80000C005F5D5306A20F001003062A4
:101DA000306A20F004003062FFF7A0F8834641F269
:101DB000883A05E0FFF79AF8A0EB0B01514556D899
:101DC00097FAA7F0B0FA80F040F04000B4EB501F53
:101DD00001D1306811E097FAA7F0B0FA80F040F036
:101DE0004000B7EB501F07D1306A06E000100240F8
:101DF0000000424200700040706A97FAA7F1B1FA01
:101E000081F101F01F0104FA01F10842D2D1E86822
:101E100001280AD008B1052812D0306A20F001004C
:101E20003062306A20F0040002E0306A40F00100C5
:101E30003062E86898B3FFF759F883460CE05AE03F
:101E4000306A40F004003062EFE700BFFFF74EF861
:101E5000A0EB0B0151450AD897FAA7F0B0FA80F031
:101E600040F04000B4EB501F02D130680CE09DE020
:101E700097FAA7F0B0FA80F040F04000B7EB501F9F
:101E800001D1306A00E0706A97FAA7F1B1FA81F1E6
:101E900001F01F0204FA02F10842D7D02BE0FFE75D
:101EA000FFF724F8834605E0FFF720F8A0EB0B01CD
:101EB00051457BD897FAA7F0B0FA80F040F0400087
:101EC000B4EB501F01D130680BE097FAA7F0B0FADD
:101ED00080F040F04000B7EB501F01D1306A00E0C5
:101EE000706A97FAA7F1B1FA81F101F01F0204FAC2
:101EF00002F10842D8D1E86980B37168C1F3810169
:101F0000022970D04FF080714F000228484609D056
:101F100091FAA1F1B1FA81F148F82100FEF7E6FF4C
:101F2000054669E0894691FAA1F1B1FA81F1C2460C
:101F300048F82100FEF7DAFF804605E0FEF7D6FFFD
:101F4000A0EB0800022854D897FAA7F0B0FA80F066
:101F500040F02000400902D0306801E061E0706A82
:101F600097FAA7F1B1FA81F101F01F0104FA01F12A
:101F70000842E3D1286AB0F5803F05D17068A968AE
:101F800020F4003008437060D5E908010843716807
:101F900021F474110843706099FAA9F0B0FA80F046
:101FA0004AF82040FEF7A2FF054606E021E000BF08
:101FB000FEF79CFF401B02281BD897FAA7F0B0FA47
:101FC00080F040F02000400901D0306800E0706AE5
:101FD00097FAA7F1B1FA81F101F01F0104FA01F1BA
:101FE0000842E5D01DE01EE0FEF780FF401B0228FE
:101FF00002D90320BDE8F88F97FAA7F0B0FA80F075
:1020000040F02000400901D0306800E0706A97FA83
:10201000A7F1B1FA81F101F01F0104FA01F10842C0
:10202000E2D10020E6E70120E4E7704710B504465E
:1020300000680168890709D54068800706D52046F1
:10204000FFF7F3FF21686FF00200486003494FF487
:10205000003008600120607410BD000014040140CD
:10206000F8B505004FF0000016460C46009006D06B
:102070002CB100226946284600F019F808B1012069
:10208000F8BD287B2070E87BE070697B6170A97BDC
:10209000A17056B101F055FBE070607801F051FB82
:1020A0006070A07801F04DFBA0700020F8BD2DE914
:1020B000F04791460C465FEA00084AD084B3D8F84E
:1020C00000004068400744D4404601F0D9FB4FF47B
:1020D00061620546B0FBF2F1B0FBF2F302FB135074
:1020E0003C23B0FBF3F0B5FBF2F6607002FB165038
:1020F000B0FBF3F203FB1200A070182931D31820B3
:10210000B1FBF0F7B1FBF0F200FB1210207040467B
:1021100001F0AFFB411C04D0A84202D9461B02E0EB
:1021200017E04FF0FF36A7EB071000EB4000C0EBC5
:10213000001005EBC0152946404601F0F0FB40B900
:10214000701C01D0711900E03146404601F0D3FB0C
:1021500010B10120BDE8F0873946404601F0FCFA95
:1021600000E02170B9F1000F0BD0207801F0E9FAFE
:102170002070607801F0E5FA6070A07801F0E1FA73
:10218000A0700020E6E7000070B5040003D0607C7A
:10219000002610B105E0012070BD2674204600F035
:1021A00043F802206074204600F022F9042578BB31
:1021B000204601F028FB58BB2068416821F0070148
:1021C0004160A06820B11748016821F00101016059
:1021D0001448001F0168A26821F460711143016076
:1021E0006068411C04D10120FFF72CF980B1401E2A
:1021F00021688A6822F00F0242EA10428A60216850
:10220000CA6860F30F02CA60204601F017FB08B1EC
:102210006574C0E7E67301206073A07360740020EA
:1022200070BD0000306C004008B50068114988425C
:102230001FD1FFF7FBF81048C16941F00061C1618F
:10224000C0690E4A00F0006000900120C10391FABD
:10225000A1F1B1FA81F102EB8101C1F80004002281
:1022600011462920FFF7B0F8BDE808402920FFF704
:102270009FB808BD00280040001002400000424204
:102280002DE9F0410D4604003BD0C5B3207C012868
:102290003AD04FF0010884F8108002206074E8788A
:1022A00072B301F045FAE073687801F041FA6073A7
:1022B000A87801F03DFAA073C2B2617BE07B01F027
:1022C000EFFA20732870204601F0DAFA4FF46161CA
:1022D000B0FBF1F1002518292DD91822B1FBF2F13C
:1022E000A1EB011101EB4101C1EB011100EBC116A2
:1022F0003146204601F013FB0427C8B90BE000E08B
:1023000004E00120BDE8F0810220FBE7E07368787B
:102310006073A878CFE7204601F0ABFA411C0AD0E1
:10232000B04208D206490144204601F0E4FA10B157
:1023300067742574E5E784F8118025740020E1E7CF
:10234000805101002DE9F0410D46040024D01DB359
:10235000207C012823D04FF0010884F8108002204F
:1023600060742878EAB101F0E3F94FF4616100FB91
:1023700001F6687801F0DCF9C0EB001006EB80068E
:10238000A87801F0D5F935182946204601F0C7FA9A
:102390000026042710BB0FE00120BDE8F0810220D9
:1023A000FBE74FF4616148436978C1EB011100EB31
:1023B0008100A9784518E7E72068416821F0050108
:1023C0004160204601F055FA411C0AD0A84208D2CB
:1023D00006490144204601F08EFA10B16774267454
:1023E000DAE784F8118026740020D6E780510100D6
:1023F00070B504000AD02068416821F008014160EE
:10240000FEF774FD05464FF47A7608E0012070BDB2
:10241000FEF76CFD401BB04201D9032070BD20685F
:1024200040680007F4D5002070BD000010B504001E
:1024300003D094F8510010B104E0012010BD2046F3
:1024400000F038F8022084F851002068016821F07B
:1024500040010160D4E901010843D4E903121143AA
:10246000084361690843218B01F400710843E16965
:102470000843216A0843A16A084321680860A069EB
:10248000042101EA1040616A08432168486021681C
:10249000E06A08612068C16921F40061C1610449F2
:1024A000002008706065012084F85100002010BDF4
:1024B000C800002010B50068114986B088421CD1C0
:1024C0001048816941F48051816180690E4C00F4AB
:1024D00080500490A02000900220019003200390DF
:1024E00069462046FEF71EFC00214020CDE9000190
:1024F000029169462046FEF715FC06B010BD0000AB
:102500000030014000100240000801404FF0E0217F
:102510000428086903D020F004000861704740F0E7
:102520000400FAE7704710B5401EB0F1807F01D378
:10253000012010BD4FF0E02460610F21601700F012
:10254000C7FF0020A06107202061002010BD10B54A
:10255000FFF7E8FF10BD7047704730B590F838209E
:10256000012A20D0012280F83820022380F8393057
:1025700003685C6824F070045C6003685C680D6844
:102580002C435C6003689C6824F080049C600368B2
:102590009C6849680C439C6080F83920002180F8D1
:1025A0003810084630BD022030BD10B5040003D0FD
:1025B00094F8390010B107E0012010BD002084F824
:1025C0003800204600F00CF8022084F83900211D64
:1025D000206801F097FB012084F83900002010BD2D
:1025E00008B500680B49884212D10B48C16941F017
:1025F0000201C161C069002200F002000090114692
:102600001D20FEF7E1FEBDE808401D20FEF7D0BE0C
:1026100008BD000000040040001002400168CA68C4
:1026200042F00102CA600068016841F001010160E6
:102630000020704770B5044690F83800012817D084
:10264000012584F83850022084F839002068826817
:1026500022F0770222F47F4282600868502837D047
:102660000DDC202859D005DC88B3102841D151E079
:10267000022070BD302853D040283AD13FE0602876
:102680002ED070280BD0B0F5805F03D0B0F5005F7E
:102690002FD110E02068816821F0070115E0CB6898
:1026A000D1E90121206801F05FFB2168886840F0D2
:1026B000770088601DE0CB68D1E90121206801F036
:1026C00053FB2068816841F48041816011E01EE085
:1026D000CA684968206801F059FB5021206806E06B
:1026E000CA684968206801F062FB6021206801F037
:1026F00045FB84F83950002084F8380070BDCA6862
:102700004968206801F042FB40212068EFE7002182
:102710002068ECE710212068E9E720212068E6E73F
:1027200030212068E3E7704770B50446006801690E
:102730004FF00005C943890715D4C168C94389070B
:1027400011D4E91E0161012020762068806980078C
:10275000204602D0FFF7E7FF04E000F098F820469B
:1027600000F096F8257620680169C943490717D417
:10277000C168C943490713D46FF004010161022005
:1027800020762068806910F4407F204602D0FFF751
:10279000CAFF04E000F07BF8204600F079F82576C7
:1027A00020680169C943090716D4C168C9430907EC
:1027B00012D46FF008010161042020762068C069FE
:1027C0008007204602D0FFF7AEFF04E000F05FF87C
:1027D000204600F05DF8257620680169C943C906E6
:1027E00017D4C168C943C90613D46FF01001016141
:1027F000082020762068C06910F4407F204602D06F
:10280000FFF791FF04E000F042F8204600F040F8A6
:10281000257620680169C943C90708D1C168C94341
:10282000C90704D1891E0161204600F033F82068F1
:102830000169C943090609D4C168C943090605D419
:102840006FF0800101612046FFF785FE2068016975
:10285000C943490609D4C168C943490605D46FF084
:1028600040010161204600F033F820680169C94346
:1028700089060BD4C168C943890607D46FF02001CB
:1028800001612046BDE87040FFF766BE70BD70472D
:102890007047000010B50D4900680968884213D1DF
:1028A0000A4A0020BC3A02F10A03A2F12801145C92
:1028B000012C06D11C5C24B951F82040641C41F85D
:1028C0002040401C0A28F2DB10BD0000BC010020A3
:1028D0007047704738B5044600680168C26811F057
:1028E000010F02F4807204D01AB1E16B41F00101D2
:1028F000E1630168C1F34002416901F0010122B1C5
:1029000019B1E26B42F00402E2630268C2F3800292
:1029100022B119B1E26B42F00202E2630268C2F333
:10292000C00222B119B1E16B41F00801E163016815
:10293000C068C1F3401100F0200019B110B1204669
:1029400001F048FA20680168C068C1F3C01100F0C6
:10295000800019B110B1204601F000FB2168086821
:10296000CA68C0F3801002F04002012570B16AB15C
:10297000CA68204622F04002CA6094F83910322911
:1029800011D080F8395000BF00F0A8FAE06B0028A1
:1029900008D0206801684068009084F839502046CB
:1029A000FFF797FF38BD222180F83910ECE770B5AA
:1029B000040004D094F83900002510B106E001208D
:1029C00070BD84F83850204600F020F8022084F8CA
:1029D00039002068C16821F40051C160204601F02F
:1029E0004DFA2068016921F4904101612068416934
:1029F00021F02A0141612068C16841F40051C160A1
:102A0000E563012084F83900002070BDF0B503684B
:102A1000374F0220002437490322374D460285B044
:102A2000BB421DD18B6943F480438B61896903925A
:102A300001F4804104910102CDE900106946284665
:102A4000FEF770F9CDE90064694628460294FEF766
:102A500069F9002211462520FEF7B6FC252020E06A
:102A6000264FBB4221D1CB6943F40033CB61C96906
:102A7000039201F4003104910421CDE9001069466C
:102A80002846FEF74FF90820CDE90004694628469C
:102A90000294FEF747F9002211462620FEF794FC27
:102AA0002620FEF785FC05B0F0BD154DAB42FAD1EE
:102AB000CB6943F48023CB61C969124D01F48021B5
:102AC000CDE90321CDE9006069462846FEF72AF9E1
:102AD000E814CDE90004694628460294FEF722F97D
:102AE000002211462720FEF76FFC2720D9E70000BF
:102AF000003801400010024000080140004400403E
:102B000000480040000C014090F83930012B01D002
:102B1000122B2CD139B332B390F83830012B26D098
:102B2000012380F8383081628285C2850021C1632B
:102B300090F83920122A18D05FF0220280F839204C
:102B400080F838100168CA6842F48072CA6001686F
:102B50004A6942F001024A610068C16841F02001FF
:102B6000C16000207047012070473222E6E7022052
:102B7000704700002DE9F0479E4907460068096844
:102B800000259D4C4FF0010888426DD1A07818B9FE
:102B900064219A48FDF7F1FAA1789748974E807E14
:102BA00069B101290ED002290FD0032910D00D28B8
:102BB00011D0A1787218491CA17010704EE0232822
:102BC000F7D04BE04528F4D047E05328F1D044E05B
:102BD0005028EED041E03179302909D0DFF8209239
:102BE000312908D08748322910D0332935D121E046
:102BF0002571257031E07079312804D084F80550B2
:102C000089F8065029E084F80580F9E7E571A57494
:102C100000224FF40041FEF763F978490020C831E3
:102C200003E0321852790A54401CA278521F904295
:102C3000F7D312E0257200224FF48041FEF750F9DD
:102C40000020714A03E0311849791154401CA178E1
:102C5000491F8842F7D389F80450A57066490122BC
:102C60001A316448FFF750FF6249386840390968F3
:102C7000884248D1607820B9604864216438FDF703
:102C80007CFA60785D49643970B1012810D06078B1
:102C900009281FD2607E627888546278082A10D092
:102CA000A28C1044A08412E0627EAA2A03D023E002
:102CB000627EC02A1FD160780144401C60700A7097
:102CC0001AE094F82420824201D184F818806078B8
:102CD000401C6070607809280ED1607EAB280BD153
:102CE000207E40B1494A00200B189B781354401CA9
:102CF0000428F9DBA57165703F493E48012219316E
:102D00004038FFF701FF3B49386840310968884285
:102D10006DD1E07820B9394864216430FDF72DFA8F
:102D2000E078364E643650B1E17E01280BD00D2993
:102D30000CD0E0783218401CE07011704EE0E17E5B
:102D40002329F6D04AE04E29F3D046E0B078303857
:102D5000062842D2DFE800F0410316293E402A4807
:102D6000E57264216430FDF708FA274900206431D8
:102D700003E03218D2780A54401CE278D21E904206
:102D8000F7D32AE0204825736421C830FDF7F5F910
:102D90001D490020C83103E03218D2780A54401C83
:102DA000E278D21E9042F7D317E01848A57584F850
:102DB00015806421C838FDF7E0F914490020C839AE
:102DC00003E03218D2780A54401CE278D21E9042B6
:102DD000F7D302E0257400E06572E570BDE8F047C6
:102DE0000549044801221B314030FFF78DBEBDE884
:102DF000F08700003802002000000020B40300200B
:102E00000A010020000C0140E0040020D40600204C
:102E10002DE9F047044690F8390099460D460128FF
:102E200001D0222858D12DB322B394F838000128BC
:102E300052D0012684F838600027E76394F83900FF
:102E400022281AD05FF0120084F83900A284E284AC
:102E50004FF48058E08C4B46401EE084A0684FF051
:102E6000000240454FF08001204613D101F0A9F83F
:102E700008BB04E00120BDE8F0873220E4E72888A1
:102E80002168C0F308004860206908B16D1C08E0A3
:102E9000AD1C06E001F095F868B9216815F8010B42
:102EA0004860E08C0028D5D14B46002240212046C6
:102EB00001F087F808B10320DDE794F839003228E3
:102EC00006D084F8396000BF84F838700020D2E75B
:102ED000222084F83900F7E70220CCE77047FEE7AC
:102EE00001684A69D24352050DD44A6922F48062CE
:102EF0004A6104218163202180F83510002180F887
:102F0000341001207047002070472DE9F84F044627
:102F100000680F46DDF828B001689846164641F46F
:102F2000806101602068016841F4807101604FF0A8
:102F300001195B4600224946204600F0A3F8F0BB89
:102F4000216807F0FE00086109F1010A5A4651465E
:102F5000204600F0DCF818B1A06B042811D036E050
:102F600020684169806900905946204600F046F982
:102F700050B1A06B04282AD12068016841F4007187
:102F800001600120BDE8F88FF5B2B8F1010F08D05B
:102F90002168300A08615946204600F02FF90028C0
:102FA000E7D1206805615946204600F027F900283E
:102FB000DFD12068016841F48071016000E006E023
:102FC0005B4600224946204600F05CF808B1032029
:102FD000D8E72168F8B240F0010008615A4651462E
:102FE000204600F094F80028B6D1CBE72DE9F8434D
:102FF000044600680E46DDF8208001681F4615462D
:1030000041F480710160434600224FF001112046D7
:1030100000F038F8D8B9216806F0FE000861424691
:103020001749204600F073F828B1A06B04280ED190
:103030000120BDE8F883206841698069009041461D
:10304000204600F0DBF820B1A06B042811D003204B
:10305000EFE7EEB2012F08D02168280A0861414647
:10306000204600F0CBF80028EED120680661002051
:10307000DFE72068016841F400710160D8E70000D3
:10308000020001002DE9F05F1E4690460C46054601
:10309000FDF72CFF81464FF0000A4FF0200BC4F3E0
:1030A0000747B8F1000F09D024E0701C06D0D6B154
:1030B000FDF71CFFA0EB0900B04214D82868012FCF
:1030C00006D0806924EA00000004000C1BD0ECE765
:1030D0004069F7E7701C0DD02EB1FDF707FFA0EB9C
:1030E0000900B04206D985F835B085F834A0032030
:1030F000BDE8F09F2868012F07D0806924EA00000E
:103100000004000CE6D00020F2E74069F6E72DE964
:10311000F04791460D460446FDF7E8FE824600273B
:103120004FF02008C5F3074629E020684069C043F6
:10313000400512D42068016841F4007101602068E4
:10314000416921F4806141610420A06384F83580E5
:1031500084F834700120BDE8F087B9F1FF3F0ED04C
:10316000B9F1000F05D0FDF7C1FEA0EB0A014945FA
:1031700005D984F8358084F834700320EBE72068A3
:10318000012E06D0806925EA00000004000CE2D080
:10319000CBE74069F7E72DE9F04188460446FDF7A3
:1031A000A5FE00250646202721E04169C943C9063E
:1031B0000BD4416921F010014161A56384F8357099
:1031C00084F834500120BDE8F081B8F1000F04D03C
:1031D000FDF78CFE811B414509D954F8380F40F0AA
:1031E000200044F80409677025700320EBE720688D
:1031F0004169C9434906D8D40020E4E770B50D46BB
:103200000446FDF773FE064619E02046FFF768FE08
:1032100008B1012070BD681C11D025B1FDF766FE14
:10322000801BA8420BD954F8380F40F0200044F816
:1032300004092020607000202070032070BD2068E9
:103240004069C0430006E0D4002070BD10B50E49AF
:103250000446392201F14000FCF776FF0A4890F855
:10326000392000F1400181F83920C06BC863214644
:1032700006A000F089FFFF23BDE810401A4619465A
:1032800003A000F081BF0000780200202573000039
:1032900025632563256300002DE9F04F8146007802
:1032A000B7B09B4614460D4600287CD1DFF810A12C
:1032B0000AF14808A8F1140615B1012D2FD075E0C8
:1032C0005FF000073B4634F81700009056F82520C1
:1032D0003CA102A800F068FF02A8FFF7B7FF7F1C1F
:1032E000062FEFDB21885746BAF81C0000F0CDFE10
:1032F000B8832188F88B00F0CCFEF883B88B00905F
:1033000056F8252033A10FA8D8F8043000F04CFF60
:10331000F88B009056F82520D8F8083038E00027C0
:103320003B4634F81700009056F8252025A129A81F
:1033300000F03AFF29A8FFF789FF7F1C062FEFDB7B
:10334000A08900904746D8F80030B04621A102A8D5
:10335000726800F029FF02A8FFF778FF218856461F
:10336000BAF8200000F091FE30842188708C00F0C3
:1033700090FE7084308C009058F8252015A10FA87D
:103380007B6800F011FF708C009058F82520BB6816
:1033900010A11CA800F008FF208838B10FA8FFF783
:1033A00055FF1CA800E007E0FFF750FFBBF1010F3D
:1033B00002D1012189F8001037B0BDE8F08F00007C
:1033C0000000002025732E6E25642E76616C3D254D
:1033D0006400000025732E25732E76616C3D2564F4
:1033E00000000000F0B5294885B0816941F0100166
:1033F0008161816901F010010491816941F020012E
:103400008161816901F020010491816941F0040129
:103410008161816901F004010491816941F0080131
:10342000816180691A4E00F00800049000224FF478
:1034300088713046FDF754FD164F01224FF470415C
:103440003846FDF74DFD002271153846FDF748FD61
:1034500010200125CDE90005022469460394304679
:10346000FDF760FC4FF47240CDE900056946039416
:103470003846FDF757FCE0010090112001906946A5
:1034800003943046FDF74EFC05B0F0BD001002403D
:1034900000080140000C01400B480A494FF400723B
:1034A00001604FF48271416000218160C16001615F
:1034B000C0E90512C1610162416281620A21C162F3
:1034C000FEF7B4BF0030014064010020FEE7704702
:1034D0000907090E002806DA00F00F0000F1E020CD
:1034E00080F8141D704700F1E02080F80014704748
:1034F0002DE9F04F8FB0934600230E461A4608ACD4
:10350000002104EB8305875C6F54491C521CA246C2
:103510000429F8DB5B1CDBB2182AF1DB5C46A01D3A
:10352000029030E00020A4EB0B0126F814000546C1
:103530000AEB8109C5F10300FDF7ABF802460B4623
:103540000020134901F022FF0746884619F80500BC
:1035500000F092FDFDF7AEF83A464346FCF793FFC4
:103560000746884636F81400FDF7A4F83A46434665
:10357000FCF7E2FEFDF7F7F86D1C26F81400042DA9
:10358000D8DB0298641C8442CCDB0FB0BDE8F08F1E
:103590000000244070B500240123002200EB440504
:1035A000CE5CAE54521C5B1C022AF9D3641CE4B2FC
:1035B0000F2BF2D370BD2DE9F0410446DDE906651D
:1035C00000781F46002809D11046FDF760FA324600
:1035D0003946284600F0B8F901202070BDE8F08196
:1035E0002DE9F041054600781E4614460F46002896
:1035F0001ED1207800281BD10E49392201F180000C
:10360000FCF7A2FD0B4890F8392000F1800181F809
:103610003920C06BC86308A000F0B6FD0749002040
:1036200008750620387001200549287020708855DB
:10363000BDE8F0813802002023320D000000002098
:103640000A01002070B5054600781C460E46002889
:1036500022D1207800281FD1107801281CD10F49D1
:10366000392201F18000FCF76FFD0C4890F83920F9
:1036700000F1800181F83920C06BC86308A000F018
:1036800083FD0120307020702870BDE8704000225A
:1036900001030548FDF724BC70BD0000380200207E
:1036A00023313132320D0000000C01402DE9F04190
:1036B00005460078069E984614460F4608B92078BD
:1036C00010B10020BDE8F08100224FF400510F48F6
:1036D000FDF706FC0E49392201F18000FCF734FDAC
:1036E0000B4890F8392000F1800181F83920C06B37
:1036F000C863414607A000F047FD03203870012051
:103700000749207028708855DCE70000000C014054
:10371000380200202335534C41564525640D0000E6
:103720000A0100200148FEF781BC00005001002082
:10373000010901EB810100F00F0000EB4100C0B274
:103740007047002102E00A38C0B2491C0A28FAD2A8
:10375000090740EA116070472DE9F0410446002551
:10376000C07B627BA37B42E0012A16D0032A14D0DF
:10377000052A12D0072A10D0082A0ED00A2A0CD007
:103780000C2A0AD0042A10D0062A0ED0092A0CD0FE
:103790000B2A0AD0022A0DD028E01F2B0CD30C2AAA
:1037A00005D101221346401C20E01E2B04D3012327
:1037B000521C1BE01C2B02D203F1010316E011D1B5
:1037C00083B29E0710D16426B3FBF6F706FB1736CB
:1037D00036B94FF4C876B3FBF6F706FB17331BB9BF
:1037E0001D2303E01D2B01D1032201236D1C8D42FB
:1037F000BAD3D1B2E0736173DAB2A27300F050F8B9
:103800002073BDE8F08170B50446FDF76FFB0546F7
:103810004FF47A7606E0FDF769FB401BB04201D910
:10382000032070BD206840688006F4D52068416898
:1038300041F010014160002070BD000070B50446E9
:103840000068416821F010014160FDF74FFB05461B
:103850004FF47A7607E000BFFDF748FB401BB0420B
:1038600001D9032070BD206840688006F4D500208F
:1038700070BD0168086A496A89B241EA0040704730
:10388000006881698AB2C1698BB2816989B28A4252
:1038900003D0C06961F31F40704743EA024070479C
:1038A000F0B56424C1EBC1030927A500072603EB8B
:1038B00001130329B3FBF7F100F5FA601144014449
:1038C0000AD2401EB0FBF4F201EB9001B0FBF5F020
:1038D000891A0844001D08E0B0FBF4F201EB9001E6
:1038E000B0FBF5F0891A0844801CB0FBF6F106FB2A
:1038F0001100C0B2F0BD70B50D4606460024FFF7BA
:1039000082FF48B93168280C08623168A8B2486261
:103910003046FFF793FF00B10124204670BD70B51B
:103920000D4606460024FFF76EFF48B93168280CA3
:1039300088613168A8B2C8613046FFF77FFF00B1E7
:103940000124204670BD00002DE9F0478046007834
:1039500016460F46002825D1134C60780002FCF76C
:1039600093FE054638602078FCF78EFE2946FCF76A
:103970001BFCDFF838904946FCF7A0FC3860E07883
:103980000002FCF781FE05463060A078FCF77CFE63
:103990002946FCF709FC4946FCF790FC0121306000
:1039A00088F80010BDE8F087D40600200000204110
:1039B0002DE9F04105460078069F14460E46002882
:1039C0001DD1207800281AD11878002817D10D4968
:1039D000392201F18000FCF7B7FB0A4890F8392042
:1039E00000F1800181F83920C06BC863394606A018
:1039F00000F0CAFB04203070012028702070BDE860
:103A0000F08100003802002023343B25733B0D0079
:103A10002DE9F041054600781F4614460E46002861
:103A20001AD12078002817D10C49392201F18000E1
:103A3000FCF78AFB094890F8392000F1800181F8F1
:103A40003920C06BC863394605A000F09DFB0520F6
:103A50003070012028702070BDE8F081380200200D
:103A600023343B25733B0D002DE9F0439DB0064602
:103A7000DDE9247800781D46894600284BD1287856
:103A8000002848D11078012845D1B888002842D0B4
:103A900064216846FCF771FB002019901A900446D7
:103AA0001B900BE037F814203B231CA119A800F051
:103AB0007BFB19A96846FCF76BFB641C4445F1DBF2
:103AC0001849392201F18000FCF73EFB154890F8B7
:103AD000391000F1800484F83910C06BE063694646
:103AE00011A000F051FB3922A4F140012046FCF75F
:103AF0002BFBA4F1400090F8391084F83910C06B0A
:103B0000E063694608A000F03FFB022189F800103D
:103B10000120307028701DB0BDE8F0832564256356
:103B200000000000380200202333444154413B256B
:103B3000730D00002DE9F04F824600788FB0002809
:103B400073D10B900C900D900E90019002900BA8E9
:103B5000FFF720FDDFF8D8B000240DF104080BA812
:103B6000002500EB440900BFC5F10100FCF7A2FDF0
:103B700002460B460020594601F008FC06460F4657
:103B800019F8050000F078FAFCF794FD32463B4640
:103B9000FCF779FC06460F4618F80400FCF78AFD8E
:103BA00032463B46FCF7C8FBFCF7DDFD6D1C08F810
:103BB0000400022DD8D3641C072CD0D39DF8040038
:103BC000FDF741F88DF827009DF80500FDF73BF85B
:103BD0008DF825009DF80600FDF735F88DF82600D4
:103BE0009DF80A00FDF72FF88DF824009DF80700D6
:103BF000FDF729F88DF828009DF80800FDF723F857
:103C00008DF829009DF80900FDF71DF88DF82A00B0
:103C100001220AA90748FEF795FB012209A90548D8
:103C2000FEF72EFB01218AF800100FB0BDE8F08FDF
:103C3000000024405001002010B5FDF757FBBDE8FF
:103C40001040FEF784BC70B594B001242004CDE987
:103C50000040002502260295CDE907600001099089
:103C60006846FDF7C9FE0F20CDE90A06A002CDE99E
:103C70000C500E9001210AA8FDF7F0FC4FF44070A3
:103C8000CDE90F400FA8FDF755FCFDF72BFE4FF4D3
:103C90007A71B0FBF1F0FEF746FC0420FEF736FC2B
:103CA00000221146501EFDF78FFB14B070BD0000BE
:103CB0000D48016841F00101016041680B4A114063
:103CC000416001680A4A11400160016821F48021C5
:103CD0000160416821F4FE0141604FF41F018160E1
:103CE0000449C00308607047001002400000FFF85C
:103CF000FFFFF6FE08ED00E00148FEF715BD0000ED
:103D0000BC010020F0B50268144B154C154D4FF066
:103D10008047984205D0B84203D0A04201D0A842C3
:103D200003D122F070064A683243984205D0B84267
:103D300003D0A04201D0A84203D122F44074CA6843
:103D4000224302608A68C2620A688262984201D194
:103D50000969016301214161F0BD0000002C0140AF
:103D6000000400400008004010B5846842EA0322C5
:103D700024F47F440A432243826010BD826822F00B
:103D800070020A4342F007018160704710B5036A70
:103D9000046A24F001040462846924F0F00444EA13
:103DA000021423F00A020A438461026210BD10B5B6
:103DB000036A23F0100303628369046A23F47043E7
:103DC00043EA023224F0A00343EA01118261016256
:103DD00010BD000010B590F83910222903D0322907
:103DE00001D0022010BD8168B1F5805F11D001695A
:103DF000002901681FD0496801F07F03816A4A1CCD
:103E000082620B70C18D491E0904090CC18518D04E
:103E100030E00269816A002A0268526805D0D2B295
:103E20000A80816A491C8162ECE7C2F308020A80B9
:103E3000816A891CF7E74A68816A4B1C83620A70B1
:103E4000E0E70168CA6822F02002CA6090F83910E1
:103E5000322911D00168CA6822F48072CA600168F0
:103E60004A6922F001024A615FF0010180F83910CD
:103E7000FEF780FE002010BD1221F7E72DE9F0418A
:103E8000044600680169E26821F440511143016170
:103E90002169A0680843616908432168CA6841F242
:103EA0000C639A430243CA6020684169A26921F405
:103EB0004071114341612849206864254FF0320860
:103EC000884218D1FDF73EFD00EBC00101EB001068
:103ED00061688900B0FBF1F0B0FBF5F6FDF732FD4B
:103EE00000EBC00101EB001061688900B0FBF1F745
:103EF000FDF728FD17E0FDF70FFD00EBC00101EB1A
:103F0000001061688900B0FBF1F0B0FBF5F6FDF739
:103F100003FD00EBC00101EB001061688900B0FBFC
:103F2000F1F7FDF7F9FC00EBC00101EB001061684F
:103F30008900B0FBF1F0B0FBF5F06FF018014843D9
:103F400007EB800108EB0110B0FBF5F0216866F388
:103F50001F108860BDE8F0810038014090F83910EA
:103F6000122903D0322901D0022070478168B1F5AF
:103F7000805F016A0BD04A1C0262026809785160B6
:103F8000C18C491E0904090CC1840ED017E00988B0
:103F90000268C1F30801516001690029016A02D079
:103FA000491C0162ECE7891CFBE70168CA6822F042
:103FB0008002CA600068C16841F04001C160002011
:103FC00070472DE9F0471D4690460E460446FCF723
:103FD0008DFF07465FEA08004FF000094FF0010827
:103FE00008D030E0681C05D095B1FCF77FFFC01BFE
:103FF000A8420DD82068006836EA0000F2D127E018
:10400000681C20D025B1FCF771FFC01BA8421AD94B
:104010002068C16821F08001C1602068C16821F07A
:104020002001C1602068C16821F48071C1602068EE
:10403000416921F00101416184F8398084F83890A8
:104040000320BDE8F0872068006836EA0000D7D07A
:104050000020F6E70148FEF73DBC0000F801002013
:104060000148FEF737BC0000380200200148FEF787
:1040700031BC00007802002030380A2801D2C0B2DA
:10408000704700207047FCF741BE884200D80846C0
:104090007047884200D30846704700003EB564254B
:1040A0008DE82C004006000E0A460146002401233C
:1040B0000348FCF791FF00B1012420463EBD0000FB
:1040C0001401002070B50546FCF701FB0446B5F568
:1040D000000F01DA002070BDFCF7CDFA2946FCF78D
:1040E000B8F8B0F17C5F00DB641CA0B270BD0000CA
:1040F0003EB564258DE82C004006000E0A460146B8
:10410000002401230348FDF753F800B101242046A1
:104110003EBD000014010020FEE700002DE9F04143
:10412000064600781F4614460D46002821D12878FF
:1041300000281ED1207800281BD10F49392201F117
:104140008000FCF701F80C4890F8392000F180015C
:1041500081F83920C06BC86301F53C7201F5237109
:1041600006A000F011F80720387001202870207098
:104170003070BDE8F08100003802002023363B2576
:10418000733B25733B0D00000FB4054B10B503A91D
:10419000044A029800F0BCF810BC5DF814FB000063
:1041A000A14C0008CC0000200FB4084B10B504A9A6
:1041B00002AA039800F0ACF8044602A9002000F01F
:1041C00083F9204610BC5DF814FB0000C9440008C8
:1041D000490050EAC12018BF04204A0D18BF40F022
:1041E000010040F2FF72B2EB515F08BF40F00200E5
:1041F000012808BF052070472DE9F0414F1E00EB54
:10420000C7010446D1E9000115461E4637F00602F3
:104210000DD02A463346FCF736F97F1E04EBC70360
:10422000D3E90023FCF788F837F00602F1D1022F1A
:1042300025D0042F13D0062F18BFBDE8F0812A46E1
:104240003346FCF720F9D4E90A23FCF775F82A462F
:104250003346FCF718F9D4E90823FCF76DF82A4631
:104260003346FCF710F9D4E90623FCF765F82A4633
:104270003346FCF708F9D4E90423FCF75DF82A4635
:104280003346FCF700F9D4E90223FCF755F82A4637
:104290003346FCF7F8F8D4E90023BDE8F041FCF719
:1042A0004BB800000022134610460149FCF75DB9E7
:1042B0000000F03FFCF740B80022134610461146BC
:1042C000FCF753B940F2013200204FF0E041FCF717
:1042D000BBB90000024A00201107FCF7B5B9000085
:1042E00001FDFFFF02E008C8121F08C1002AFAD131
:1042F00070477047002001E001C1121F002AFBD166
:10430000704700000149086070470000D00000209D
:104310002DE9FF4F8BB09A460F460546002606E072
:1043200025280BD052460D9990476D1C761C287895
:104330000028F5D10FB03046BDE8F08F0024A0462C
:104340000122604900E0044315F8013F203B02FAD6
:1043500003F00842F7D128782E2817D115F8010F5D
:1043600044F004042A280ED06FF02F022878A0F120
:10437000300109290AD808EB880102EB410100EB62
:1043800001086D1CF2E757F8048B6D1C287869282A
:104390003ED006DC0028CDD063280BD0642804D1A1
:1043A00036E0732810D075284BD052460D999047AF
:1043B000761C85E017F8040B8DF8000000208DF8BE
:1043C0000100E946012003E057F8049B4FF0FF305D
:1043D00061074FF0000401D40AE0641C44450DDA83
:1043E0008442FADB19F804100029F6D106E0641CB7
:1043F0008442FCDB19F804100029F8D1264404E0BB
:1044000019F8010B52460D999047641EF8D257E0F7
:1044100001CF4FF00A0B002802DA40422D2102E0C2
:10442000210504D52B218DF82410012103E0E1079B
:1044300005D02021F7E70DF1200908910CE00021BB
:10444000F9E701CF4FF00A0BF9E75946FCF7F0F90D
:1044500001F1300209F8012D0028F6D1ADEB090079
:1044600000F1200B600701D44FF00108D84502DDB0
:10447000A8EB0B0000E000208046002406E009A81D
:104480005246005D0D999047641C761C0898844242
:10449000F5DB04E0302052460D999047761CB8F1C8
:1044A0000001A8F10108F5DC05E019F8010B5246FE
:1044B0000D999047761CBBF10001ABF1010BF4DCC8
:1044C0006D1C34E7092801000A68531C0B6010704A
:1044D0007047024600200A4200D0012070472DE9B3
:1044E000F04114465FEA010805461F464FF00006FA
:1044F00021D004B3FFB10020C4E90200C4E90000E8
:10450000C4E90400680705D01946404600F044FBA2
:10451000C4E90201E80705D03946404600F030FA08
:10452000C4E90001680708D53946404600F07EF925
:10453000C4E9040101E04FF0FF363046BDE8F081E8
:104540002DE9F041054616460F461C46184600F078
:10455000FDFE00280ED1A078012801D045F080058D
:104560006078646833463A462946A047002801D05F
:104570006FF00300BDE8F08170B586B006460020FC
:10458000059004900090019002900D46144610464C
:1045900000F0DCFEA8B9A5B12346082204A9F72043
:1045A000FFF7CEFF00280AD1694604A800F04AF8B8
:1045B00004F110032A4669463046FFF790FF06B023
:1045C00070BD4FF0FF30FAE770B504460D4608465F
:1045D00000F0BCFE002809D12B4601222146F42020
:1045E000FFF7AEFF217801F00301217070BD38B5EF
:1045F000054600208DF800000524284600F0A6FEA0
:1046000000281ED12B4601226946D020FFF798FFD3
:1046100018B99DF80000602807D0E9680120884794
:10462000641E14F0FF04EDD109E02870284600F064
:10463000CBF810B9284600F021FC002C01D16FF016
:10464000010038BD10B5027843781203847842EA3D
:10465000031242EA14120A60C27803791203447901
:1046600042EA031242EA14124A608279C07940EAAF
:1046700002228A6010BDF0B585B014460E4605468C
:104680001F460A2A00D90A24184600F05FFE4FF0A0
:10469000FF3CA0BB9DB396B394B330788DF8000077
:1046A000B878012809D0002005E0295C01F07F01DD
:1046B0002954401CC0B2A042F7D3012C13D969463B
:1046C000012009E001EB40032A5C03F8012C325C75
:1046D00001F81020401CC0B22246A042F2D30CEBDD
:1046E000420083B200E02346BC68297878786A46A5
:1046F000A047002801D06FF0030005B0F0BD03E033
:10470000FFE76FF00200F8E76046F6E73EB50546C2
:104710000C46084600F01AFE002823D1214601A8C5
:10472000FFF752FF00281DD19DF8040020B120465C
:1047300001F018FB002815D1F4208DF8080023465D
:1047400001226946FFF7FCFE00280BD19DF800000E
:10475000234665F301008DF800000122694602A896
:10476000FFF789FF3EBDF8B507460D46084600F045
:10477000EDFD040026D129466846FFF725FF040019
:1047800020D19DF8000020B1284601F0EBFA04008A
:1047900018D139460720FFF79CFE05F1380630B1E5
:1047A0002A463146384601F025FB04000AD1394635
:1047B0001820FFF78EFE28B12A463146384601F010
:1047C000F2FA04462046F8BD3EB50546E0208DF8D5
:1047D000040000208DF80000B6208DF808000524A4
:1047E000284600F0B3FD002818D12B46012202A96B
:1047F00001A8FFF740FF002810D1E9680220884790
:104800002B4601226946F320FFF79AFE38B9641E51
:10481000E4B204D39DF80010C907EED13EBD9DF867
:104820000010C907FAD06FF005003EBD2DE9F34F27
:104830000C46002185B08B460491DFF838A18946EB
:10484000606AFBF726FF00224B4BFBF716FE07467C
:104850000D46B4F92000FBF71CFF6FF00D02FBF7CB
:10486000F3FE3A462B46FBF70EFE06468846B4F9A1
:104870001E00FBF70EFF0622FBF7E6FE324643461C
:10488000FBF75AFD0646059888468068FBF712FF3D
:1048900043463246FBF7F1FDCDE90201B4F91A00B7
:1048A000FBF7F7FE6FF00F02FBF7CEFECDE900013C
:1048B000207FFBF7FFFE6FF01902FBF7C5FE3A46BB
:1048C0002B46FBF7E0FD00222C4BFBF735FD06469F
:1048D000884694F92200FBF7DCFE6FF01902FBF723
:1048E000B3FE3A462B46FBF7CEFD32464346FBF776
:1048F000CAFD0022214BFBF71FFD32464346FBF762
:10490000C2FD05460E46DDE90201DDE90023FBF7A5
:10491000BAFD2A463346FBF7B6FD05460E46207E15
:10492000FBF7C8FE2A463346FBF7ADFD6FF01202D7
:10493000FBF78AFE0022114BFBF7A2FD2A46334605
:10494000FBF7A1FD04460D4600225346FBF73CFF52
:1049500002D24C46554608E000221346204629461E
:10496000FBF71AFF01D2049D5C4607B0204629469A
:10497000BDE8F08F0000594000C0F2400000F03F59
:104980002DE9F34F00248DB00D46DFF8F481DFF8F8
:10499000F4A1A146486AFBF77CFE621EFBF754FEB9
:1049A0000022794BFBF769FD06460F46B5F910006A
:1049B000FBF76FFE834632463B460591104619468B
:1049C000FBF761FD5A46059BFBF75DFD6FF00E029C
:1049D000FBF73AFE83460591B5F90E00FBF759FE49
:1049E00032463B46FBF74FFD0122FBF72DFE5A46B0
:1049F000059BFBF7A1FC83460591B5F90C00FBF77D
:104A000048FE1022FBF720FECDE90001A21E584609
:104A10000599FBF719FEDDE90023FBF78DFCCDE9D5
:104A20000401B5F90A00FBF734FE32463B46FBF7BA
:104A30002AFD32463B46FBF726FD6FF01202FBF7DC
:104A400003FE83460991B5F90800FBF722FE3246C2
:104A50003B46FBF718FD5A46099BFBF76DFC6FF0D0
:104A60001202FBF7F1FD07468B46E888FBF722FEB2
:104A7000064600916FF00E0238465946FBF7E4FDFA
:104A80000022424BFBF758FC3246009BFBF7FBFC35
:104A9000002206460F461346FBF796FE69D20D9894
:104AA0000068FBF707FE0022394BFBF7E9FC834661
:104AB0000191DDE904016FF00B02FBF7C5FD5A46D9
:104AC000019BFBF7DDFC0022324BFBF7DCFC32469E
:104AD0003B46FBF74AFD07460E46B5F91600FBF7C5
:104AE000D8FD3A463346FBF7CEFC3A463346FBF751
:104AF000CAFC6FF01E02FBF7A7FD83460391B5F9D0
:104B00001400FBF7C6FD3A463346FBF7BCFC6FF0DA
:104B10000E02FBF799FDCDE90401B5F91200FBF790
:104B2000B8FD054658460DF10C0B09919BE80E00A7
:104B3000FBF702FC2A46099BFBF7FEFB221FFBF753
:104B400083FD3A463346FBF7F7FB05460E46002247
:104B50004346FBF721FE02D2254646460BE00022E3
:104B6000084B28463146FBF72FFE04D24D465646E9
:104B700001E0464625460FB028463146BDE8F08F95
:104B8000004CDD4000DBFA400040EF400000F03F09
:104B900000003041006AB8402DE9FE4F0C463D4907
:104BA00005464FF0000B0291DFF8ECA0D9462088B3
:104BB000FBF780FD06466FF009020191FBF744FD0B
:104BC000074688466868FBF775FD05466FF00D02DD
:104BD0000091FBF739FD3A464346FBF74EFC07468A
:104BE0008846B4F90200FBF754FD3A464346FBF70A
:104BF0004AFC0746884630466FF00C020199FBF7E5
:104C000023FD0646019128466FF010020099FBF73C
:104C10001BFD3246019BFBF730FC05460E46B4F9FE
:104C20000400FBF736FDCDE900012A463346104665
:104C30001946FBF728FCDDE90023FBF724FC0646B8
:104C40000D463A464346FBF777FBFBF76DFD606286
:104C500032462B4638464146FBF76EFB00220F4B8F
:104C6000FBF783FC04460D4600220A4BFBF794FD3C
:104C700002D25C46029D08E00022074B20462946EE
:104C8000FBF7A2FD01D24C46554603B0204629460B
:104C9000BDE8F08F000044C0004055400000B44023
:104CA00013B5FF23012269460248FEF7B1F8002040
:104CB0001CBD0000B80200202DE9F05F0A46464BFB
:104CC000DFF818C1DFF81881DFF81891DFF818A1B4
:104CD000DFF818B1DFF818E1A0F50001192A02D0B9
:104CE0000A2A29D059E0434A914201D8424C27E090
:104CF0004249884202DA0C46414F29E04149884244
:104D000002DA0C46404F2AE04049884202DC0C4659
:104D10003F4F2BE03F49884202DC0C463E4F2CE0DF
:104D20003E49884202DC0C463D4F2DE03D49884219
:104D300033DC0C463C4F2EE03C4A914204D23C4CC2
:104D400000271D463E4628E03A4CA04203DA3A4F7F
:104D50006546464621E0394CA04203DA384F4D46BD
:104D600056461AE0374CA04203DA374F5D46764686
:104D700013E0364CA04203DA354F364D364E0CE088
:104D8000364CA04203DA364F364D374E05E0374CED
:104D9000A0421DDA364F374D374E3946FBF756FAEB
:104DA000804639462046FBF751FA044631462846EC
:104DB000FBF74CFA2146FBF781FA4146FBF74CFA28
:104DC0003146FBF7F1F9FBF79BFC80B2BDE8F09FA1
:104DD0004FF4FA70FAE70000000048420000C842B1
:104DE00000004C42000016430000CA420000484345
:104DF000000017436666F640666676419A9921423E
:104E000000007841CDCC8242000022426666164303
:104E10000000834266667A43008016433333AF4313
:104E200000807A433333FA430040AF430000D84157
:104E30000000584200001A4300005C4200007E431C
:104E400000001B430000B14300007F430000D44337
:104E50000080B14300009643000049430000FC433A
:104E60000080D4430000C8430080964300001744EC
:104E70000080FC430000FA430080C84330B587B08F
:104E8000054688241C216846FBF777F92B461A2231
:104E900069462046FFF754FB00284CD1BDF80000BE
:104EA0002882BDF802006882BDF80400A882BDF81F
:104EB0000600E882BDF808002883BDF80A00688370
:104EC000BDF80C0005F11001A883BDF80E00C881E3
:104ED000BDF810000882BDF812004882BDF8140029
:104EE0008882BDF81600C8820C469DF8190020760D
:104EF000E1202B4607226946FFF722FB00281AD142
:104F0000BDF8001061839DF8021021779DF8042000
:104F10009DF9031002F00F0242EA0111E1839DF9AD
:104F200005109DF80420090141EA121121849DF821
:104F3000061084F8221007B030BD000088B0FCF7DE
:104F4000DDF9FEF780FEFEF74DFAE948E749002457
:104F500001604FF0FF31C0E90114FDF715F94FF082
:104F600001098DF804908DF805408DF806404A46F9
:104F700001A9DF48FDF7E6F98DF800908DF8019062
:104F80008DF802908DF8034001226946D848FDF75C
:104F900077F9D748D7493C380160D749C0E90114AF
:104FA0004FF48041C0E9034144618461C4610462FB
:104FB000FBF7A2FFFEF770FACD48D049A8300C27C6
:104FC00001604FF41651C0E90114C460C0E9044700
:104FD0008461C461FDF7EBFCC54EC948E8364FF467
:104FE000E1383060C6E90184F460C6E90447B46181
:104FF0003046F461FDF7DBFC06F14005C14828604E
:10500000C5E90184EC60C5E90447AC612846EC6160
:10501000FDF7CDFCA5F1BC00BB4901604BF680312A
:10502000C0E9011440F2E731C0E90314FDF7BDFA0D
:105030004FF48050049004A9A5F1BC00FDF7FAFAE2
:1050400000946946A5F1BC000194FDF786FADFF8EB
:10505000BC82D8F82800401CC8F82800FBF7FEFDE9
:105060004FF4FA60FBF752FE012208F11901A5F195
:105070008000FDF749FD012208F11A013046FDF7D5
:1050800043FD012208F11B012846FDF73DFD314695
:10509000392201F18000FBF757F896F8390005F145
:1050A000400787F83900F06BF86399A0FFF76CF8B8
:1050B000392229463846FBF747F895F8390087F832
:1050C0003900E86BF86396A0FFF75EF805F1800001
:1050D000FBF7FCFC392229463846FBF735F895F8F2
:1050E000390087F83900E86BF86390A0FFF74CF8B7
:1050F00005F18000FBF7D0FC88F8099088F80A4099
:1051000088F81040A5F1BC00FDF788FA4D464446EA
:1051100006F2BA464FF002094FF006084FF0040AB3
:105120004FF01E0B002379481A4619460F300095A0
:10513000FBF7AAFD7549814A891D01F12A00CDE9D5
:105140000001031FA2F140012138FEF734FA6F4835
:1051500000231A4601210D300095FBF795FD607B79
:1051600070BB0A21206BFFF7A7FD07461921E06AF3
:10517000FFF7A2FD3946FEF788FF3080E06AFEF7B0
:10518000A1FF7080206BFEF79DFF6C4FB080D7E9C8
:105190000201FBF731FBFEF795FFF080D7E9040130
:1051A000FBF72AFBFEF78EFF3081D7E900010022D2
:1051B000634BFBF7DAF9FBF71FFBFEF783FF708108
:1051C000524800235F4A19460D30FEF765F85D4AE4
:1051D0004E480123143A19460D30FEF75DF84B484E
:1051E00003230022022110300095FBF74DFD474BB1
:1051F0001033A3F10B02511F081DFEF723FA434899
:105200005149C01DFEF796FC4048012300220321AE
:105210000A300095FBF738FD3C4BCDE900680A33B6
:105220005A1F511F081DFEF71FFC38480323002298
:1052300004210930CDF80090FBF726FD334A3349AD
:1052400001230932081DCDF800A0FEF72FFA3D4AD0
:105250002E48143AA2F5FF710830FBF737FD2B48B2
:1052600000231A4605210E300095FBF70DFD274956
:1052700003AB0E3102AA081DFBF774FC2348002380
:105280001A4606211330CDF800B0FBF7FDFC1F4A8B
:105290001E4906231332081DFEF7A2F91B480023FE
:1052A0001A46072111300095FBF7EEFC17482278CB
:1052B00061791130FBF726FC144B03F10C02511EEF
:1052C000C81FFEF72BFF1F48104B82380F491533BC
:1052D00000909A1C081DFEF76BFB1A4B0B4A0B49FA
:1052E000E63B1632081DFEF793FB1BE70028004043
:1052F0005001002000540040A08601000038014009
:10530000004400400048004000040040000000202D
:10531000696D706F7274206D796F730D00000000FD
:10532000494E495420424D450A000000494E495417
:1053300020424D45204F4B0A00000000380300205A
:1053400000005940F20600207C04002038B141687A
:1053500029B1816819B1C06808B1002070474FF0C9
:10536000FF307047027802F007028A708278C2F339
:1053700082020A70827852094A70C278C2F38202AD
:10538000CA70C07840090871704700002DE9F04DDF
:105390001D460C4698B0174621F0004123F000430B
:1053A000002814BF4FF0010C4FF0000C0CEB440C24
:1053B000FE4A0CEB02064FEA620C66452BD33E0018
:1053C00018BF012606EB45061644F94A964222D339
:1053D000F84A53EA070C02D0944205D148B918B0F4
:1053E00000201146BDE8F08D002808BF4FF0000CEA
:1053F00001D04FF0010C0CEB440212F5001F0AD84B
:10540000002F14BF4FF0010C4FF0000C0CEB4502C5
:1054100012F5001F07D918B03A462B462146BDE8C1
:10542000F04DFEF747BF0022DFF88CA3002CB8BF79
:10543000534526DADFF884C36345A8BF022220DA89
:10544000DFF870C39C451CDCDFF874C30CEB235CF5
:10545000BCF1140F08DDCCF1340627FA06FC0CFA77
:1054600006F6BE420DD108E05FB9CCF1140623FA6E
:1054700006FC0CFA06F69E4203D10CF00102C2F1C2
:10548000020251EA000C19D1002D17DA002C18BFC6
:10549000022A01D0012A07D00220FEF733FF18B0FC
:1054A000BDE8F04DFEF7FEBE0220FEF72BFFFEF733
:1054B000F9FE18B081F00041BDE8F08DB7F1000CA5
:1054C0006CD1534525D104F1804212F5801201BF01
:1054D00000280020B74918B008BFBDE8F08DB548D6
:1054E000884207DC002DA1BF6046294618B0BDE800
:1054F000F08D07E0281E05DA80F0004118B0604604
:10550000BDE8F08DAF497944D1E9000118B0BDE89C
:10551000F08DDFF8A0C2634525D1002D1FDA19B147
:10552000514512D1D8B909E0002840F0EC82A24AD6
:10553000214618B062F31E01BDE8F08D002021461F
:1055400018B060F31E01BDE8F08D08DA18B02346EC
:10555000BDE8F04D024600206146FBF706B818B0E2
:105560002146BDE8F08D514518DAB5F1804F0DD0D8
:10557000A5F1005CBCF1FF5C10D1B4F1000C0DDBB7
:1055800018B06146BDE8F04D00F080BC234618B06D
:105590000246BDE8F04D1946FAF775BF060024F043
:1055A000004C3BD1D9B1514533D1002C06DD002D43
:1055B000A1BF0020514618B0BDE8F08D002C01DDE0
:1055C000002D1BDB002C13DA002D11DB012A4FF01C
:1055D000000014BF78497C4918B0BDE8F08D022A5C
:1055E00018BF002C0AD0012A08D1002C06DA0AE0E4
:1055F000002CB8BF002D11DA012A04D0002018B009
:105600000146BDE8F08D18B000204FF00041BDE824
:10561000F08DA1F14050B0F17F601AD0012000EB75
:10562000E47050EA020421D0624C521E4FF0000B8D
:10563000104304BF4FF0000B644C654883427CDD8F
:10564000644A654893421FDD884217DB002D25DB45
:1056500037E0002C00DA4AB1022A0CBF01204FF0DB
:10566000FF3018B0BDE8F04DFBF713B80120FEF78E
:1056700049FE18B0BDE8F04DFEF71EBE4D4A8A4205
:1056800002DC002D0ADC1CE0814202DA002D18DA6F
:1056900004E0484B994220DD002D12DD0220FEF788
:1056A00031FEFEF70FFE05460E46002253465846D1
:1056B0002146FAF7E8FE18B066F31E012846BDE859
:1056C000F08D0220FEF71EFEFEF704FE0A4621467C
:1056D00018B062F31E01BDE8F08D0022304661462D
:1056E000FAF7CBFE80460E466FF00102FAF7ACFFE8
:1056F0004FF05532394BFAF7C3FE42463346FAF7BC
:10570000C2FE0022364BFAF7BBFE824642463346C3
:10571000049110461946FAF7B6FE5246049BFAF772
:10572000B2FE8A4600904FF0C0422E4B40463146B2
:10573000FAF7A9FE2C4A2B4B00E027E0CDE9060141
:1057400051460098FAF79FFE82460191274A284B5E
:1057500040463146FAF797FE5246019BFAF78DFE16
:1057600082460B4602460591DDE90601FAF7E4FDA3
:10577000DDE90623002688463046FAF77EFE5246CB
:10578000059BFAF77DFE024600F07EB90020B1F5D8
:10579000801F07DA352230466146FAF755FF064684
:1057A0006FF0340000EB215024E00000FFFF1F00E9
:1057B000FFFF0F000000F03F0000F07F00004043BB
:1057C00001FCFFFF660A00000000F0FF0000F0BFD0
:1057D0000000E0410000F043FFFFEF3F5555D53F8B
:1057E0000000E03F4715F73FFE822B6544DF5DF880
:1057F0000BAE543EA0F2FF300190C1F3130040F015
:105800007F6141F040510291FE498842D8BF00209B
:1058100004DDFD498142C8BF012001DD0D9008E093
:1058200000200D900198401C01900298A0F5801076
:1058300002900299F54878440B910D9900EBC10054
:10584000D0E900230F9330460A920B99FAF715FE20
:10585000CDE90601DDE90A2130460F9BFAF76CFD20
:1058600002460B460020EA49FAF77FFE0591024600
:105870000B460090DDE90601FAF705FE1490E548B5
:105880008A464FF0000878440299006812904FF061
:10589000005040EA61010D980F9B01EB804000F53C
:1058A000002109910A9A1298FAF7E7FD32460B9BFC
:1058B000FAF7E6FD42465346FAF7E5FD0646029141
:1058C00040465146099B129AFAF7DDFDDDE90623B1
:1058D000FAF7D6FD3246029BFAF7CFFD059B009AF8
:1058E000FAF7D1FD0091149A0490534610461946D8
:1058F000FAF7C9FD06460246C7480B460291062143
:105900007844FEF779FCCDE90510029B324610463B
:105910001946FAF7B8FDDDE90532FAF7B4FD05914D
:105920000646534640461946149AFAF705FD009B71
:10593000049AFAF7A8FD3246059BFAF7FDFCCDE97B
:1059400005104246534610461946FAF79CFD0022C0
:10595000B24B02910A90FAF7EFFCDDE90532FAF753
:10596000EBFC0E464246AD4B4046FAF786FD029BE5
:105970000A9AFAF782FDDDE90532FAF781FD42461F
:1059800002910A90334610465146FAF77CFDCDE964
:1059900006015346149A02990A98FAF774FD8A464A
:1059A00002903346424600990498FAF76CFD53463C
:1059B000029AFAF7C1FC82460B4602460591DDE9E0
:1059C0000601FAF7B9FCDDE9062300208846064601
:1059D000FAF753FD5246059BFAF752FD82460991AC
:1059E0004FF060428E4B30464146FAF74CFD049032
:1059F00006918C4A8A4B50460999FAF744FD824633
:105A00000291894A894B30464146FAF73CFD52469D
:105A1000029BFAF791FC864B7B440D9A03EBC20381
:105A2000D3E90023FAF788FC0E9007910198FAF762
:105A300030FE0591DDE9061382460E9A0498FAF7C6
:105A40007BFC7C4A7A440D9B02EBC303D3E9002321
:105A500000930292FAF770FC5246059BFAF76CFC31
:105A60000026884652463046059BFAF706FD009B05
:105A7000029AFAF702FD069B049AFAF7FEFC079BCE
:105A80000E9AFAF7FDFC024600200B4602903846BB
:105A90002946FAF7F8FC824601912B46384619460A
:105AA000029AFAF7EAFC32464346FAF7ECFC524611
:105AB000019BFAF741FC07468A463246434629468F
:105AC0000298FAF7E0FC05460E463A465346FAF7C6
:105AD00033FC594A8846914221DBA8EB020353EA82
